{
  "_format": "hh-sol-artifact-1",
  "contractName": "TaskContract",
  "sourceName": "contracts/TaskContract.sol",
  "abi": [
    {
      "anonymous": false,
      "inputs": [
        {
          "indexed": false,
          "internalType": "address",
          "name": "recipient",
          "type": "address"
        },
        {
          "indexed": false,
          "internalType": "uint16",
          "name": "taskId",
          "type": "uint16"
        }
      ],
      "name": "AddTask",
      "type": "event"
    },
    {
      "anonymous": false,
      "inputs": [
        {
          "indexed": false,
          "internalType": "uint16",
          "name": "taskId",
          "type": "uint16"
        },
        {
          "indexed": false,
          "internalType": "bool",
          "name": "isDeleted",
          "type": "bool"
        }
      ],
      "name": "DeleteTask",
      "type": "event"
    },
    {
      "anonymous": false,
      "inputs": [
        {
          "indexed": false,
          "internalType": "address",
          "name": "recipient",
          "type": "address"
        },
        {
          "indexed": false,
          "internalType": "string",
          "name": "taskTitle",
          "type": "string"
        },
        {
          "indexed": false,
          "internalType": "string",
          "name": "taskDescription",
          "type": "string"
        }
      ],
      "name": "UpdateTask",
      "type": "event"
    },
    {
      "inputs": [
        {
          "internalType": "string",
          "name": "_taskTitle",
          "type": "string"
        },
        {
          "internalType": "string",
          "name": "_taskDescription",
          "type": "string"
        },
        {
          "internalType": "bool",
          "name": "_isDeleted",
          "type": "bool"
        }
      ],
      "name": "addTask",
      "outputs": [],
      "stateMutability": "nonpayable",
      "type": "function"
    },
    {
      "inputs": [
        {
          "internalType": "uint16",
          "name": "_taskId",
          "type": "uint16"
        }
      ],
      "name": "deleteTask",
      "outputs": [],
      "stateMutability": "nonpayable",
      "type": "function"
    },
    {
      "inputs": [
        {
          "internalType": "uint16",
          "name": "_taskId",
          "type": "uint16"
        }
      ],
      "name": "getTask",
      "outputs": [
        {
          "components": [
            {
              "internalType": "uint16",
              "name": "taskId",
              "type": "uint16"
            },
            {
              "internalType": "string",
              "name": "taskTitle",
              "type": "string"
            },
            {
              "internalType": "string",
              "name": "taskDescription",
              "type": "string"
            },
            {
              "internalType": "bool",
              "name": "isDeleted",
              "type": "bool"
            }
          ],
          "internalType": "struct TaskContract.Task",
          "name": "",
          "type": "tuple"
        }
      ],
      "stateMutability": "view",
      "type": "function"
    },
    {
      "inputs": [],
      "name": "getTasks",
      "outputs": [
        {
          "components": [
            {
              "internalType": "uint16",
              "name": "taskId",
              "type": "uint16"
            },
            {
              "internalType": "string",
              "name": "taskTitle",
              "type": "string"
            },
            {
              "internalType": "string",
              "name": "taskDescription",
              "type": "string"
            },
            {
              "internalType": "bool",
              "name": "isDeleted",
              "type": "bool"
            }
          ],
          "internalType": "struct TaskContract.Task[]",
          "name": "",
          "type": "tuple[]"
        }
      ],
      "stateMutability": "view",
      "type": "function"
    },
    {
      "inputs": [
        {
          "internalType": "uint16",
          "name": "_taskId",
          "type": "uint16"
        },
        {
          "internalType": "string",
          "name": "_taskTitle",
          "type": "string"
        },
        {
          "internalType": "string",
          "name": "_taskDescription",
          "type": "string"
        }
      ],
      "name": "updateTask",
      "outputs": [],
      "stateMutability": "nonpayable",
      "type": "function"
    }
  ],
  "bytecode": "0x608060405234801561001057600080fd5b5061177a806100206000396000f3fe608060405234801561001057600080fd5b50600436106100575760003560e01c806304a87e381461005c5780631db00d0b1461007a57806329a0cb891461009657806375e313d6146100b2578063d2442fc2146100ce575b600080fd5b6100646100fe565b6040516100719190610f02565b60405180910390f35b610094600480360381019061008f9190611099565b610658565b005b6100b060048036038101906100ab9190611150565b61085d565b005b6100cc60048036038101906100c7919061117d565b6109f0565b005b6100e860048036038101906100e39190611150565b610b02565b6040516100f59190611272565b60405180910390f35b606061011467fcb5bae9e5eae03960c01b610cdd565b610128676ca50ad3209e041c60c01b610cdd565b61013c67574d62d8d59eafc560c01b610cdd565b6000808054905067ffffffffffffffff81111561015c5761015b610f42565b5b60405190808252806020026020018201604052801561019557816020015b610182610ce0565b81526020019060019003908161017a5790505b5090506101ac673fc39a5b0a00d8b860c01b610cdd565b6101c067eda1578d7d0a2ee360c01b610cdd565b60006101d667ae60623465515d7c60c01b610cdd565b6101ea67085a035f1b5eaf0960c01b610cdd565b60005b6000805490508161ffff1610156104fe57610212674d21d0aced480c8a60c01b610cdd565b610226675695d778ab7d85ec60c01b610cdd565b3373ffffffffffffffffffffffffffffffffffffffff16600160008361ffff1661ffff16815260200190815260200160002060009054906101000a900473ffffffffffffffffffffffffffffffffffffffff1673ffffffffffffffffffffffffffffffffffffffff161480156102d0575060008161ffff16815481106102af576102ae611294565b5b906000526020600020906004020160030160009054906101000a900460ff16155b156104d6576102e967beee0586417cec3460c01b610cdd565b6102fd67753f5dd5f894eed860c01b610cdd565b60008161ffff168154811061031557610314611294565b5b90600052602060002090600402016040518060800160405290816000820160009054906101000a900461ffff1661ffff1661ffff16815260200160018201805461035e906112f2565b80601f016020809104026020016040519081016040528092919081815260200182805461038a906112f2565b80156103d75780601f106103ac576101008083540402835291602001916103d7565b820191906000526020600020905b8154815290600101906020018083116103ba57829003601f168201915b505050505081526020016002820180546103f0906112f2565b80601f016020809104026020016040519081016040528092919081815260200182805461041c906112f2565b80156104695780601f1061043e57610100808354040283529160200191610469565b820191906000526020600020905b81548152906001019060200180831161044c57829003601f168201915b505050505081526020016003820160009054906101000a900460ff161515151581525050838361ffff16815181106104a4576104a3611294565b5b60200260200101819052506104c367439fd8e1a7cc247860c01b610cdd565b81806104ce90611352565b9250506104eb565b6104ea676d448417c108138b60c01b610cdd565b5b80806104f690611352565b9150506101ed565b5061051367e7ca2f6c66a2b98f60c01b610cdd565b610527674767f6c3b5768a3b60c01b610cdd565b60008161ffff1667ffffffffffffffff81111561054757610546610f42565b5b60405190808252806020026020018201604052801561058057816020015b61056d610ce0565b8152602001906001900390816105655790505b5090506105976799f231ac540b69bb60c01b610cdd565b6105ab678d58136341c1095e60c01b610cdd565b60005b8261ffff168161ffff161015610626576105d267d69226739890b1ef60c01b610cdd565b838161ffff16815181106105e9576105e8611294565b5b6020026020010151828261ffff168151811061060857610607611294565b5b6020026020010181905250808061061e90611352565b9150506105ae565b5061063b6788de9c4c5998af6060c01b610cdd565b61064f67f6a7c4c13425938d60c01b610cdd565b80935050505090565b61066c67120a3c44e9c0899660c01b610cdd565b61068067c59074492e8f831760c01b610cdd565b610694671563f9eddfa88e4660c01b610cdd565b6000808054905090506106b167aad93e711e10ee3d60c01b610cdd565b6106c5676a919a199403170560c01b610cdd565b600060405180608001604052808361ffff168152602001868152602001858152602001841515815250908060018154018082558091505060019003906000526020600020906004020160009091909190915060008201518160000160006101000a81548161ffff021916908361ffff160217905550602082015181600101908161074f9190611532565b5060408201518160020190816107659190611532565b5060608201518160030160006101000a81548160ff021916908315150217905550505061079c67c91e8d971db1c58d60c01b610cdd565b33600160008361ffff1661ffff16815260200190815260200160002060006101000a81548173ffffffffffffffffffffffffffffffffffffffff021916908373ffffffffffffffffffffffffffffffffffffffff16021790555061080a67a15b69af1041bbda60c01b610cdd565b61081e67eb7321472b4e63bf60c01b610cdd565b7feda62859c4a0f2b9c7224c224480a682f6d8b88478abc3f9db14f399aa2e6216338260405161084f929190611654565b60405180910390a150505050565b610871675fd0d2e26fdf0ec960c01b610cdd565b6108856762df8a3aa130e7af60c01b610cdd565b610899676773adb5b023457560c01b610cdd565b3373ffffffffffffffffffffffffffffffffffffffff16600160008361ffff1661ffff16815260200190815260200160002060009054906101000a900473ffffffffffffffffffffffffffffffffffffffff1673ffffffffffffffffffffffffffffffffffffffff16036109d85761091b674dfdbd5c8a5802a860c01b610cdd565b61092f67141f9d23a679116d60c01b610cdd565b600160008261ffff168154811061094957610948611294565b5b906000526020600020906004020160030160006101000a81548160ff02191690831515021790555061098567c606619bebc6761060c01b610cdd565b610999675ff4bb92cc7d739560c01b610cdd565b7ffd19f0060b5a6dc7e962396c82202545f5627484ccf97921c3a923f3391122438160016040516109cb92919061168c565b60405180910390a16109ed565b6109ec672a5e8a9e1bc157f060c01b610cdd565b5b50565b610a04672889fac589fd7a1260c01b610cdd565b610a18674fcba1a9a0dc130c60c01b610cdd565b8160008461ffff1681548110610a3157610a30611294565b5b90600052602060002090600402016001019081610a4e9190611532565b50610a63676f8bf0e7851c9e1860c01b610cdd565b8060008461ffff1681548110610a7c57610a7b611294565b5b90600052602060002090600402016002019081610a999190611532565b50610aae6724254b8dc4b87a8e60c01b610cdd565b610ac26717ca168e67e1140660c01b610cdd565b7f56e19bfd1b8aea089835a70d517f00be6d594993554408c6554ef5cedd2e42c8338383604051610af5939291906116ff565b60405180910390a1505050565b610b0a610ce0565b610b1e671480dbb80bf4acd160c01b610cdd565b610b3267193eda17e6dd354160c01b610cdd565b610b4667924c3a5c1c0f354760c01b610cdd565b60008261ffff1681548110610b5e57610b5d611294565b5b90600052602060002090600402016040518060800160405290816000820160009054906101000a900461ffff1661ffff1661ffff168152602001600182018054610ba7906112f2565b80601f0160208091040260200160405190810160405280929190818152602001828054610bd3906112f2565b8015610c205780601f10610bf557610100808354040283529160200191610c20565b820191906000526020600020905b815481529060010190602001808311610c0357829003601f168201915b50505050508152602001600282018054610c39906112f2565b80601f0160208091040260200160405190810160405280929190818152602001828054610c65906112f2565b8015610cb25780601f10610c8757610100808354040283529160200191610cb2565b820191906000526020600020905b815481529060010190602001808311610c9557829003601f168201915b505050505081526020016003820160009054906101000a900460ff1615151515815250509050919050565b50565b6040518060800160405280600061ffff16815260200160608152602001606081526020016000151581525090565b600081519050919050565b600082825260208201905092915050565b6000819050602082019050919050565b600061ffff82169050919050565b610d5181610d3a565b82525050565b600081519050919050565b600082825260208201905092915050565b60005b83811015610d91578082015181840152602081019050610d76565b60008484015250505050565b6000601f19601f8301169050919050565b6000610db982610d57565b610dc38185610d62565b9350610dd3818560208601610d73565b610ddc81610d9d565b840191505092915050565b60008115159050919050565b610dfc81610de7565b82525050565b6000608083016000830151610e1a6000860182610d48565b5060208301518482036020860152610e328282610dae565b91505060408301518482036040860152610e4c8282610dae565b9150506060830151610e616060860182610df3565b508091505092915050565b6000610e788383610e02565b905092915050565b6000602082019050919050565b6000610e9882610d0e565b610ea28185610d19565b935083602082028501610eb485610d2a565b8060005b85811015610ef05784840389528151610ed18582610e6c565b9450610edc83610e80565b925060208a01995050600181019050610eb8565b50829750879550505050505092915050565b60006020820190508181036000830152610f1c8184610e8d565b905092915050565b6000604051905090565b600080fd5b600080fd5b600080fd5b600080fd5b7f4e487b7100000000000000000000000000000000000000000000000000000000600052604160045260246000fd5b610f7a82610d9d565b810181811067ffffffffffffffff82111715610f9957610f98610f42565b5b80604052505050565b6000610fac610f24565b9050610fb88282610f71565b919050565b600067ffffffffffffffff821115610fd857610fd7610f42565b5b610fe182610d9d565b9050602081019050919050565b82818337600083830152505050565b600061101061100b84610fbd565b610fa2565b90508281526020810184848401111561102c5761102b610f3d565b5b611037848285610fee565b509392505050565b600082601f83011261105457611053610f38565b5b8135611064848260208601610ffd565b91505092915050565b61107681610de7565b811461108157600080fd5b50565b6000813590506110938161106d565b92915050565b6000806000606084860312156110b2576110b1610f2e565b5b600084013567ffffffffffffffff8111156110d0576110cf610f33565b5b6110dc8682870161103f565b935050602084013567ffffffffffffffff8111156110fd576110fc610f33565b5b6111098682870161103f565b925050604061111a86828701611084565b9150509250925092565b61112d81610d3a565b811461113857600080fd5b50565b60008135905061114a81611124565b92915050565b60006020828403121561116657611165610f2e565b5b60006111748482850161113b565b91505092915050565b60008060006060848603121561119657611195610f2e565b5b60006111a48682870161113b565b935050602084013567ffffffffffffffff8111156111c5576111c4610f33565b5b6111d18682870161103f565b925050604084013567ffffffffffffffff8111156111f2576111f1610f33565b5b6111fe8682870161103f565b9150509250925092565b60006080830160008301516112206000860182610d48565b50602083015184820360208601526112388282610dae565b915050604083015184820360408601526112528282610dae565b91505060608301516112676060860182610df3565b508091505092915050565b6000602082019050818103600083015261128c8184611208565b905092915050565b7f4e487b7100000000000000000000000000000000000000000000000000000000600052603260045260246000fd5b7f4e487b7100000000000000000000000000000000000000000000000000000000600052602260045260246000fd5b6000600282049050600182168061130a57607f821691505b60208210810361131d5761131c6112c3565b5b50919050565b7f4e487b7100000000000000000000000000000000000000000000000000000000600052601160045260246000fd5b600061135d82610d3a565b915061ffff820361137157611370611323565b5b600182019050919050565b60008190508160005260206000209050919050565b60006020601f8301049050919050565b600082821b905092915050565b6000600883026113de7fffffffffffffffffffffffffffffffffffffffffffffffffffffffffffffffff826113a1565b6113e886836113a1565b95508019841693508086168417925050509392505050565b6000819050919050565b6000819050919050565b600061142f61142a61142584611400565b61140a565b611400565b9050919050565b6000819050919050565b61144983611414565b61145d61145582611436565b8484546113ae565b825550505050565b600090565b611472611465565b61147d818484611440565b505050565b5b818110156114a15761149660008261146a565b600181019050611483565b5050565b601f8211156114e6576114b78161137c565b6114c084611391565b810160208510156114cf578190505b6114e36114db85611391565b830182611482565b50505b505050565b600082821c905092915050565b6000611509600019846008026114eb565b1980831691505092915050565b600061152283836114f8565b9150826002028217905092915050565b61153b82610d57565b67ffffffffffffffff81111561155457611553610f42565b5b61155e82546112f2565b6115698282856114a5565b600060209050601f83116001811461159c576000841561158a578287015190505b6115948582611516565b8655506115fc565b601f1984166115aa8661137c565b60005b828110156115d2578489015182556001820191506020850194506020810190506115ad565b868310156115ef57848901516115eb601f8916826114f8565b8355505b6001600288020188555050505b505050505050565b600073ffffffffffffffffffffffffffffffffffffffff82169050919050565b600061162f82611604565b9050919050565b61163f81611624565b82525050565b61164e81610d3a565b82525050565b60006040820190506116696000830185611636565b6116766020830184611645565b9392505050565b61168681610de7565b82525050565b60006040820190506116a16000830185611645565b6116ae602083018461167d565b9392505050565b600082825260208201905092915050565b60006116d182610d57565b6116db81856116b5565b93506116eb818560208601610d73565b6116f481610d9d565b840191505092915050565b60006060820190506117146000830186611636565b818103602083015261172681856116c6565b9050818103604083015261173a81846116c6565b905094935050505056fea2646970667358221220454590f5367af3a5fc1b5d14d8a77be88ba37ae7ab171241f875ddb4dbd8ecc764736f6c63430008110033",
  "linkReferences": {},
  "deployedLinkReferences": {}
}